{
  "_format": "hh-sol-artifact-1",
  "contractName": "Twitter",
  "sourceName": "contracts/twitter-q1.sol",
  "abi": [
    {
      "inputs": [],
      "name": "nextTweetId",
      "outputs": [
        {
          "internalType": "uint256",
          "name": "",
          "type": "uint256"
        }
      ],
      "stateMutability": "view",
      "type": "function"
    },
    {
      "inputs": [
        {
          "internalType": "string",
          "name": "_content",
          "type": "string"
        }
      ],
      "name": "postTweet",
      "outputs": [],
      "stateMutability": "nonpayable",
      "type": "function"
    },
    {
      "inputs": [
        {
          "internalType": "address",
          "name": "_user",
          "type": "address"
        }
      ],
      "name": "readTweets",
      "outputs": [
        {
          "components": [
            {
              "internalType": "uint256",
              "name": "tweetId",
              "type": "uint256"
            },
            {
              "internalType": "address",
              "name": "author",
              "type": "address"
            },
            {
              "internalType": "string",
              "name": "content",
              "type": "string"
            },
            {
              "internalType": "uint256",
              "name": "createdAt",
              "type": "uint256"
            }
          ],
          "internalType": "struct Twitter.Tweet[]",
          "name": "",
          "type": "tuple[]"
        }
      ],
      "stateMutability": "view",
      "type": "function"
    },
    {
      "inputs": [
        {
          "internalType": "string",
          "name": "_name",
          "type": "string"
        }
      ],
      "name": "registerAccount",
      "outputs": [],
      "stateMutability": "nonpayable",
      "type": "function"
    },
    {
      "inputs": [
        {
          "internalType": "uint256",
          "name": "",
          "type": "uint256"
        }
      ],
      "name": "tweets",
      "outputs": [
        {
          "internalType": "uint256",
          "name": "tweetId",
          "type": "uint256"
        },
        {
          "internalType": "address",
          "name": "author",
          "type": "address"
        },
        {
          "internalType": "string",
          "name": "content",
          "type": "string"
        },
        {
          "internalType": "uint256",
          "name": "createdAt",
          "type": "uint256"
        }
      ],
      "stateMutability": "view",
      "type": "function"
    },
    {
      "inputs": [
        {
          "internalType": "address",
          "name": "",
          "type": "address"
        }
      ],
      "name": "users",
      "outputs": [
        {
          "internalType": "address",
          "name": "wallet",
          "type": "address"
        },
        {
          "internalType": "string",
          "name": "name",
          "type": "string"
        }
      ],
      "stateMutability": "view",
      "type": "function"
    }
  ],
  "bytecode": "0x608060405234801561001057600080fd5b506112f5806100206000396000f3fe608060405234801561001057600080fd5b50600436106100625760003560e01c80630cbc3dc41461006757806371c85b8d146100835780638076e02b146100b3578063a87430ba146100d1578063bff6de2014610102578063e8d857b01461011e575b600080fd5b610081600480360381019061007c9190610bfc565b610151565b005b61009d60048036038101906100989190610ca7565b610424565b6040516100aa9190610eba565b60405180910390f35b6100bb61069a565b6040516100c89190610eeb565b60405180910390f35b6100eb60048036038101906100e69190610ca7565b6106a0565b6040516100f9929190610f5f565b60405180910390f35b61011c60048036038101906101179190610bfc565b61076c565b005b61013860048036038101906101339190610fbb565b610950565b6040516101489493929190610fe8565b60405180910390f35b3360008060008373ffffffffffffffffffffffffffffffffffffffff1673ffffffffffffffffffffffffffffffffffffffff16815260200190815260200160002060010180546101a090611063565b80601f01602080910402602001604051908101604052809291908181526020018280546101cc90611063565b80156102195780601f106101ee57610100808354040283529160200191610219565b820191906000526020600020905b8154815290600101906020018083116101fc57829003601f168201915b50505050509050600081511415610265576040517f08c379a000000000000000000000000000000000000000000000000000000000815260040161025c90611107565b60405180910390fd5b61026d610a28565b60025481600001818152505033816020019073ffffffffffffffffffffffffffffffffffffffff16908173ffffffffffffffffffffffffffffffffffffffff168152505084848080601f016020809104026020016040519081016040528093929190818152602001838380828437600081840152601f19601f82011690508083019250505050505050816040018190525042816060018181525050806001600060025481526020019081526020016000206000820151816000015560208201518160010160006101000a81548173ffffffffffffffffffffffffffffffffffffffff021916908373ffffffffffffffffffffffffffffffffffffffff160217905550604082015181600201908051906020019061038b929190610a66565b50606082015181600301559050506000803373ffffffffffffffffffffffffffffffffffffffff1673ffffffffffffffffffffffffffffffffffffffff16815260200190815260200160002060020160025490806001815401808255809150506001900390600052602060002001600090919091909150556001600260008282546104169190611156565b925050819055505050505050565b606060008060008473ffffffffffffffffffffffffffffffffffffffff1673ffffffffffffffffffffffffffffffffffffffff1681526020019081526020016000206002018054806020026020016040519081016040528092919081815260200182805480156104b357602002820191906000526020600020905b81548152602001906001019080831161049f575b5050505050905060008151905060008167ffffffffffffffff8111156104dc576104db6111ac565b5b60405190808252806020026020018201604052801561051557816020015b610502610a28565b8152602001906001900390816104fa5790505b50905060005b8281101561068e576000848281518110610538576105376111db565b5b6020026020010151905060016000828152602001908152602001600020604051806080016040529081600082015481526020016001820160009054906101000a900473ffffffffffffffffffffffffffffffffffffffff1673ffffffffffffffffffffffffffffffffffffffff1673ffffffffffffffffffffffffffffffffffffffff1681526020016002820180546105d090611063565b80601f01602080910402602001604051908101604052809291908181526020018280546105fc90611063565b80156106495780601f1061061e57610100808354040283529160200191610649565b820191906000526020600020905b81548152906001019060200180831161062c57829003601f168201915b5050505050815260200160038201548152505083838151811061066f5761066e6111db565b5b60200260200101819052505080806106869061120a565b91505061051b565b81945050505050919050565b60025481565b60006020528060005260406000206000915090508060000160009054906101000a900473ffffffffffffffffffffffffffffffffffffffff16908060010180546106e990611063565b80601f016020809104026020016040519081016040528092919081815260200182805461071590611063565b80156107625780601f1061073757610100808354040283529160200191610762565b820191906000526020600020905b81548152906001019060200180831161074557829003601f168201915b5050505050905082565b600082828080601f016020809104026020016040519081016040528093929190818152602001838380828437600081840152601f19601f8201169050808301925050505050505090506000815114156107fa576040517f08c379a00000000000000000000000000000000000000000000000000000000081526004016107f19061129f565b60405180910390fd5b610802610aec565b83838080601f016020809104026020016040519081016040528093929190818152602001838380828437600081840152601f19601f82011690508083019250505050505050816020018190525033816000019073ffffffffffffffffffffffffffffffffffffffff16908173ffffffffffffffffffffffffffffffffffffffff1681525050806000803373ffffffffffffffffffffffffffffffffffffffff1673ffffffffffffffffffffffffffffffffffffffff16815260200190815260200160002060008201518160000160006101000a81548173ffffffffffffffffffffffffffffffffffffffff021916908373ffffffffffffffffffffffffffffffffffffffff1602179055506020820151816001019080519060200190610929929190610a66565b506040820151816002019080519060200190610946929190610b23565b5090505050505050565b60016020528060005260406000206000915090508060000154908060010160009054906101000a900473ffffffffffffffffffffffffffffffffffffffff169080600201805461099f90611063565b80601f01602080910402602001604051908101604052809291908181526020018280546109cb90611063565b8015610a185780601f106109ed57610100808354040283529160200191610a18565b820191906000526020600020905b8154815290600101906020018083116109fb57829003601f168201915b5050505050908060030154905084565b604051806080016040528060008152602001600073ffffffffffffffffffffffffffffffffffffffff16815260200160608152602001600081525090565b828054610a7290611063565b90600052602060002090601f016020900481019282610a945760008555610adb565b82601f10610aad57805160ff1916838001178555610adb565b82800160010185558215610adb579182015b82811115610ada578251825591602001919060010190610abf565b5b509050610ae89190610b70565b5090565b6040518060600160405280600073ffffffffffffffffffffffffffffffffffffffff16815260200160608152602001606081525090565b828054828255906000526020600020908101928215610b5f579160200282015b82811115610b5e578251825591602001919060010190610b43565b5b509050610b6c9190610b70565b5090565b5b80821115610b89576000816000905550600101610b71565b5090565b600080fd5b600080fd5b600080fd5b600080fd5b600080fd5b60008083601f840112610bbc57610bbb610b97565b5b8235905067ffffffffffffffff811115610bd957610bd8610b9c565b5b602083019150836001820283011115610bf557610bf4610ba1565b5b9250929050565b60008060208385031215610c1357610c12610b8d565b5b600083013567ffffffffffffffff811115610c3157610c30610b92565b5b610c3d85828601610ba6565b92509250509250929050565b600073ffffffffffffffffffffffffffffffffffffffff82169050919050565b6000610c7482610c49565b9050919050565b610c8481610c69565b8114610c8f57600080fd5b50565b600081359050610ca181610c7b565b92915050565b600060208284031215610cbd57610cbc610b8d565b5b6000610ccb84828501610c92565b91505092915050565b600081519050919050565b600082825260208201905092915050565b6000819050602082019050919050565b6000819050919050565b610d1381610d00565b82525050565b610d2281610c69565b82525050565b600081519050919050565b600082825260208201905092915050565b60005b83811015610d62578082015181840152602081019050610d47565b83811115610d71576000848401525b50505050565b6000601f19601f8301169050919050565b6000610d9382610d28565b610d9d8185610d33565b9350610dad818560208601610d44565b610db681610d77565b840191505092915050565b6000608083016000830151610dd96000860182610d0a565b506020830151610dec6020860182610d19565b5060408301518482036040860152610e048282610d88565b9150506060830151610e196060860182610d0a565b508091505092915050565b6000610e308383610dc1565b905092915050565b6000602082019050919050565b6000610e5082610cd4565b610e5a8185610cdf565b935083602082028501610e6c85610cf0565b8060005b85811015610ea85784840389528151610e898582610e24565b9450610e9483610e38565b925060208a01995050600181019050610e70565b50829750879550505050505092915050565b60006020820190508181036000830152610ed48184610e45565b905092915050565b610ee581610d00565b82525050565b6000602082019050610f006000830184610edc565b92915050565b610f0f81610c69565b82525050565b600082825260208201905092915050565b6000610f3182610d28565b610f3b8185610f15565b9350610f4b818560208601610d44565b610f5481610d77565b840191505092915050565b6000604082019050610f746000830185610f06565b8181036020830152610f868184610f26565b90509392505050565b610f9881610d00565b8114610fa357600080fd5b50565b600081359050610fb581610f8f565b92915050565b600060208284031215610fd157610fd0610b8d565b5b6000610fdf84828501610fa6565b91505092915050565b6000608082019050610ffd6000830187610edc565b61100a6020830186610f06565b818103604083015261101c8185610f26565b905061102b6060830184610edc565b95945050505050565b7f4e487b7100000000000000000000000000000000000000000000000000000000600052602260045260246000fd5b6000600282049050600182168061107b57607f821691505b6020821081141561108f5761108e611034565b5b50919050565b7f546869732077616c6c657420646f6573206e6f742062656c6f6e6720746f206160008201527f6e79206163636f756e742e000000000000000000000000000000000000000000602082015250565b60006110f1602b83610f15565b91506110fc82611095565b604082019050919050565b60006020820190508181036000830152611120816110e4565b9050919050565b7f4e487b7100000000000000000000000000000000000000000000000000000000600052601160045260246000fd5b600061116182610d00565b915061116c83610d00565b9250827fffffffffffffffffffffffffffffffffffffffffffffffffffffffffffffffff038211156111a1576111a0611127565b5b828201905092915050565b7f4e487b7100000000000000000000000000000000000000000000000000000000600052604160045260246000fd5b7f4e487b7100000000000000000000000000000000000000000000000000000000600052603260045260246000fd5b600061121582610d00565b91507fffffffffffffffffffffffffffffffffffffffffffffffffffffffffffffffff82141561124857611247611127565b5b600182019050919050565b7f4e616d652063616e6e6f7420626520616e20656d70747920737472696e670000600082015250565b6000611289601e83610f15565b915061129482611253565b602082019050919050565b600060208201905081810360008301526112b88161127c565b905091905056fea26469706673582212201a5c328fbe74a19be5e79d80aed859898a527b66ce306d83a64c58a998620c1664736f6c63430008090033",
  "linkReferences": {},
  "deployedLinkReferences": {}
}